S01C00004D656368795F50726F746F747970655F56302E322E7372656398
S1130000C1C00000DAC00000D8C00000D6C00000A3
S1130010D4C00000D2C00000D0C00000CEC0000098
S1130020CCC00000CAC0000036C50000C6C0000035
S1130030C4C00000C2C00000C0C00000BEC00000B8
S1130040BCC00000BAC00000B8C00000B6C00000C8
S1130050B4C00000B2C00000B0C00000AEC00000D8
S1130060ACC00000AAC00000A8C00000A6C00000E8
S1130070A4C00000A2C00000A0C000009EC00000F8
S11300809CC000009AC0000098C0000096C0000008
S113009094C0000092C0000090C000008EC0000018
S11300A08CC000008AC0000088C000002A034D00F4
S11300B065006300680079002000500072006F0042
S11300C074006F0074007900700065002000560011
S11300D030002E003200000018035000720065004A
S11300E063006900700068006500720061006C00C4
S11300F000000403090409022200010100C03209BE
S1130100040000010300000009211101000122592B
S1130110000705810310000512011001000000080A
S1130120EB03432001000102000105010905A101BF
S11301300901A1000A30000A31000A33000A340020
S113014016000026FF03950475108102C00501A165
S1130150010939150025073500453B6514550095FF
S11301600175048102750195048101C00509190115
S1130170290A150025017501950A81027501950664
S11301808101C00011241FBECFEFDAE0DEBFCDBF76
S113019011E0A0E0B1E0E0E4FFE002C005900D92C0
S11301A0A030B107D9F721E0A0E0B1E001C01D9271
S11301B0AF30B207E1F7D8D1C1C622CF292F3327F8
S11301C023303105C9F038F42130310559F022309B
S11301D0310569F035C02132310541F12232310552
S11301E051F12EC082E190E028E131E032C082E298
S11301F090E026EF30E02DC099278130910551F031
S113020018F0029769F021C0E2EFF0E0849190E0E9
S11302109F011FC0E8EDF0E0849190E09F0119C0B8
S1130220ECEAF0E0849190E09F0113C089E090E053
S113023028E031E00EC089E590E02AE231E009C00F
S113024080E090E020E030E004C080E090E020E036
S113025030E0FA0131832083089584B7877F84BF17
S11302600FB6F894A895809160008861809360002F
S1130270109260000FBE90E080E80FB6F89480936F
S11302806100909361000FBE84988C9A86E88093F5
S11302907A008DB1806F8DB98EB18F708EB98AB1AD
S11302A01AB88BB18FEF8BB9D8C308958EB1806F14
S11302B08EB908958EB1806F8EB9089542E161ECD4
S11302C081E0C0D28EB1806F8EB90895CF93DF9351
S11302D0DC0129B120958BE0FD0111928A95E9F7A3
S11302E081E480937C00EBE7F0E080818F7D808364
S11302F0EAE7F0E0808180648083908194FFFDCF01
S1130300EAE7F0E0808180618083809178009091B9
S11303107900809533E0932711969C938E9380E423
S113032080937C00CBE7D0E088818F7D88838081B7
S113033080648083908194FFFDCFEAE7F0E08081C0
S113034080618083809178009091790013969C93CA
S11303508E93129786E480937C00CBE7D0E088816B
S11303608F7D8883808180648083908194FFFDCF1A
S1130370EAE7F0E080818061808380917800909149
S11303807900809533E0932715969C938E93149768
S113039085E480937C00CBE7D0E088818F7D8883DF
S11303A0808180648083908194FFFDCFEAE7F0E050
S11303B08081806180838091780090917900179684
S11303C09C938E93169725FF07C019968C911997C5
S11303D0816019968C93199722233CF419968C9179
S11303E01997826019968C93199724FF07C0199660
S11303F08C911997846019968C93199726FF07C0DE
S113040019968C911997886019968C931997822F55
S1130410817021FD826022FD846023FD8860853027
S113042071F13CF4823099F08430A9F0813059F5AF
S11304300BC08830A1F01CF48630E9F024C0893068
S113044091F08A30A1F01FC018961C921FC084E05E
S113045018968C931BC086E018968C9317C082E084
S113046018968C9313C081E018968C930FC083E088
S113047018968C930BC085E018968C9307C087E080
S113048018968C9303C08FEF18968C93909100016B
S1130490922780910101982B81E009F480E0109269
S11304A0010120930001DF91CF9108950F931F93D1
S11304B0CF93DF93CDB7DEB72B970FB6F894DEBF9B
S11304C00FBECDBF809108018130B1F48091070146
S11304D0813A91F4CE010196F9DE08EE10E0F801BC
S11304E08081877F80836BE070E0CE010196A1D08C
S11304F0F80180818B7780832B960FB6F894DEBF4A
S11305000FBECDBFDF91CF911F910F910895CF936F
S1130510DF93CDB7DEB72B970FB6F894DEBF0FBECF
S1130520CDBF809106018430B1F481E08093E9006D
S11305308091E80080FF0FC0CE010196C7DE40E045
S113054050E06BE070E0CE01019616D0E8EEF0E0EA
S113055080818E7780832B960FB6F894DEBF0FBE12
S1130560CDBFDF91CF91089578DE8EB1806F8EB9C3
S11305707894CDDFC9D4FDCF8F929F92AF92BF9272
S1130580CF92DF92EF92FF920F931F93CF93DF935B
S11305908C01EB015A01E0D181113EC0A114B104D8
S11305A039F0F50180819181C81BD90B080F191FFF
S11305B0209789F1E12CF12C0F2EF8EE8F2E912C3F
S11305C0F02D0F2EF1EFCF2ED12CF02DF4018081E0
S11305D085FD14C080818E77808396D4A114B104E4
S11305E049F0F50180819181E80EF91EF182E082E3
S11305F085E012C0B1D1882351F00EC0F801819179
S11306008F01F60180832197FFEFEF1AFF0A2097ED
S1130610E9F680E001C080E0DF91CF911F910F9156
S1130620FF90EF90DF90CF90BF90AF909F908F900E
S11306300895CF92DF92FF920F931F93CF93DF938E
S113064020910D0130910E012617370758F06115DE
S1130650710539F4E8EEF0E020812E7720839B01C8
S113066001C09B01A82FB92F10E0E8EEF0E063EF82
S113067070E042EF50E00F2EF1EFCF2ED12CF02D91
S113068001E0F12C30C080910601882309F442C0B6
S1130690853009F441C0808183FD40C0808182FDA2
S11306A032C0808180FF1FC0EB011881EA0188817C
S11306B090E0912B2115310579F08830910560F493
S11306C01D91E60118832150310901962115310548
S11306D019F088309105A1F7102F089709F01F2D04
S11306E080818E7780832115310569F61111CBCF76
S11306F00AC080910601882399F0853099F08081A1
S113070083FF03C011C0E8EEF0E0808182FFF1CFE7
S113071080E00BC082E009C083E007C081E005C02F
S113072082E003C083E001C081E0DF91CF911F919B
S11307300F91FF90DF90CF900895CF92DF92FF92B8
S11307400F931F93CF93DF9320910D0130910E01EE
S11307502617370758F06115710539F4E8EEF0E013
S113076020812E7720839B0101C09B01E82FF92F64
S113077010E0A8EEB0E063EF70E042EF50E00F2E1F
S1130780F1EFCF2ED12CF02D01E0F12C31C080916E
S11307900601882309F443C0853009F442C08C91D2
S11307A083FD41C08C9182FD33C08C9180FF20C0B9
S11307B0EB011881EA01888190E0912B2115310524
S11307C081F08830910568F41491E601188331961C
S11307D02150310901962115310519F08830910510
S11307E099F7102F089709F01F2D8C918E778C9311
S11307F02115310561F61111CACF0AC08091060195
S1130800882399F0853099F0808183FF03C011C05B
S1130810E8EEF0E0808182FFF1CF80E00BC082E05F
S113082009C083E007C081E005C082E003C083E023
S113083001C081E0DF91CF911F910F91FF90DF9074
S1130840CF9008958F929F92BF92CF92DF92EF92B2
S1130850FF920F931F93CF93DF93873070F126C0DD
S1130860292F2F70E7012883891731F0E801788157
S11308702081E401588103C0242F762F5B2D21FFB2
S113088012C03C913E7F3C9330813D7F30833C914C
S113089031603C93E80178832083E4015883E601C6
S11308A02881222344F49F5F9730D1F68F70809380
S11308B0E90081E021C080E01FC0982F9F709093D1
S11308C0E900982F242F762F50E0ABEEB0E0EDEE48
S11308D0F0E00CEE10E00F2EF0EF8F2E912CF02DA7
S11308E00F2EFEEECF2ED12CF02D0F2EF9EEEF2E83
S11308F0F12CF02DB12CC3CFDF91CF911F910F912B
S1130900FF90EF90DF90CF90BF909F908F900895CD
S113091080910701882344F0E8EEF0E014C0809150
S11309200601811103C00895E8EEF0E0808182FFA2
S1130930F6CFE8EEF0E080818B7780830895809194
S11309400601882341F0808180FFF9CFE8EEF0E0D2
S113095080818E77808308950F931F93CF93DF93C5
S11309602091E4003091E50065E6ACEEB0E0E8EEFD
S1130970F0E00BEE10E044EE50E001C09C019C91CD
S1130980892F817090FD1DC020C0809106018823AD
S113099081F0853081F0E801888185FD0EC0EA018F
S11309A0888199812817390751F3615039F784E018
S11309B00FC082E00DC083E00BC081E009C080E07D
S11309C007C0808180FFE1CFFACF908192FFDDCF15
S11309D0DF91CF911F910F9108950F931F93CF93A0
S11309E0DF934CD053D0C8EDD0E088818F778883D3
S11309F088818068888388818F7D888319BC109260
S1130A00060110920201109204011092030100EEFB
S1130A1010E0F80180818B7F8083888181608883E6
S1130A2042E060E080E00EDFE1EEF0E080818E7F66
S1130A308083E2EEF0E08081816080838081886041
S1130A408083F80180818E7F8083888180618883A0
S1130A50DF91CF911F910F910895E8EDF0E080812F
S1130A608F7E8083E7EDF0E080818160808384E085
S1130A7082BF81E080930501B0CF0895E8EDF0E0F6
S1130A8080818E7F80831092E20008951092DA00B4
S1130A901092E10008951F920F920FB60F92112445
S1130AA02F933F934F935F936F937F938F939F9372
S1130AB0AF93BF93EF93FF938091E10082FF0AC04D
S1130AC08091E20082FF06C0E1EEF0E080818B7F3E
S1130AD0808319D28091DA0080FF1DC08091D800F4
S1130AE080FF19C0EAEDF0E080818E7F80838091E1
S1130AF0D90080FF0CC080E189BD82E189BD09B4C1
S1130B0000FEFDCF81E080930601D0DB04C019BC58
S1130B1010920601CFDB8091E10080FF16C0809126
S1130B20E20080FF12C0E2EEF0E080818E7F8083DD
S1130B30808180618083E8EDF0E080818062808341
S1130B4019BC85E080930601DED18091E10084FF29
S1130B502FC08091E20084FF2BC080E189BD82E137
S1130B6089BD09B400FEFDCFE8EDF0E080818F7D02
S1130B708083E1EEF0E080818F7E8083E2EEF0E01E
S1130B8080818F7E80838081816080838091020157
S1130B90882321F084E08093060109C08091E3005A
S1130BA0882314F081E001C083E080930601ABD177
S1130BB08091E10083FF1EC08091E20083FF1AC090
S1130BC0E1EEF0E08081877F808382E080930601FC
S1130BD01092020180818E7F8083E2EEF0E08081BA
S1130BE08E7F808380818061808342E060E080E04A
S1130BF029DE89D1FF91EF91BF91AF919F918F91A0
S1130C007F916F915F914F913F912F910F900FBE04
S1130C100F901F9018950F931F93CF93DF93CDB729
S1130C20DEB7AA970FB6F894DEBF0FBECDBFE7E0DC
S1130C30F1E02FE031E0A1EFB0E08C9181932E1729
S1130C403F07D9F733DC8091E80083FF37C1E7E041
S1130C50F1E090818181853009F47FC030F48130E6
S1130C60C9F168F08330B1F129C1883009F4F1C0C9
S1130C70893009F4FEC0863009F020C191C0903853
S1130C8021F0923809F01AC108C0809103019091B3
S1130C900401992389F082600FC080910B018F7049
S1130CA0873008F00BC1E9EEF0E080838091EB001F
S1130CB085FB882780F91082E8EEF0E09081977F29
S1130CC09083A1EFB0E08C931C9280818E77808317
S1130CD01FDEF4C0992309F400C1923009F0EEC07C
S1130CE001C191E0833009F090E0909304012CC09D
S1130CF080910B018F709FEF980F963008F0DEC043
S1130D008093E9009091EB0090FF1EC09091080140
S1130D10933031F4EBEEF0E080818062808314C084
S1130D20EBEEF0E090819061908321E030E0A90146
S1130D3002C0440F551F8A95E2F7AAEEB0E04C9327
S1130D401C928081886080831092E900E8EEF0E0D4
S1130D508081877F8083DCDDB1C09111AFC01091A9
S1130D6009011F77E3EEF0E080818078812B808396
S1130D70E8EEF0E08081877F8083CADDE8EEF0E072
S1130D80808180FFFDCFE3EEF0E080818068808386
S1130D90111102C082E001C083E0809306018EC07D
S1130DA09058923008F08AC08091090190910A010C
S1130DB08C3D53E0950799F583E08A838AE2898321
S1130DC05FB7F894DE01139620E03EE041E2E32FA2
S1130DD0F0E040935700849120FF03C082958F7008
S1130DE03F5F8F708A3018F090E0C79602C090E0A1
S1130DF0C0968D939D932F5F243149F75FBF08EE12
S1130E0010E0F8018081877F80836AE270E0CE0180
S1130E1001960FDCF80180818B7780834FC060914D
S1130E200B0170910C01AE014F5F5F4FC7D9BC013C
S1130E30892B09F443C008EE10E0F8019081977FF4
S1130E40908389819A8179DCF80180818B77808312
S1130E5035C0903899F5E8EEF0E08081877F808393
S1130E60809102018093F10080818E77808350DD30
S1130E7025C0911123C08091090190910A019927FD
S1130E800297E4F4E8EEF0E08081877F808380912C
S1130E900901809302013CDD80910201882321F045
S1130EA084E08093060109C08091E300882314F054
S1130EB081E001C084E08093060100DA8091E800BB
S1130EC083FF16C0E8EEF0E08081877F8083EBEE3D
S1130ED0F0E08081806280830BC0909109019130A1
S1130EE069F7FFCE80910901882309F401CF2CCF43
S1130EF0AA960FB6F894DEBF0FBECDBFDF91CF9197
S1130F001F910F9108950895CF938091060188232E
S1130F1099F0C091E900CF708091EC00982F917006
S1130F2080FD90E8C92B1092E9008091E80083FDD0
S1130F3072DECF70C093E900CF910895F894FFCF8B
S9030000FC
