S01C00004D656368795F50726F746F747970655F56302E332E7372656397
S1130000E1C200001BC3000019C3000017C30000B5
S113001015C3000013C3000011C300000FC3000088
S11300200DC300000BC300000C942D1107C3000086
S113003005C3000003C3000001C30000FFC20000A9
S1130040FDC20000FBC20000F9C20000F7C20000BC
S1130050F5C20000F3C20000F1C20000EFC20000CC
S1130060EDC20000EBC20000E9C20000E7C20000DC
S1130070E5C20000E3C20000E1C20000DFC20000EC
S1130080DDC20000DBC20000D9C20000D7C20000FC
S1130090D5C20000D3C20000D1C20000CFC200000C
S11300A0CDC20000CBC20000C9C200002A034D002B
S11300B065006300680079002000500072006F0042
S11300C074006F0074007900700065002000560011
S11300D030002E0033000000180350007200650049
S11300E063006900700068006500720061006C00C4
S11300F000000403090409022200010100C03209BE
S1130100040000010300000009211101000122592B
S1130110000705810310000512011001000000080A
S1130120A020964201000102000105010905A10178
S11301300901A1000A30000A31000A33000A340020
S113014016000026FF03950475108102C00501A165
S1130150010939150025073500453B6514550095FF
S11301600175048102750195048101C00509190115
S1130170290A150025017501950A81027501950664
S11301808101C000070600000302420700000000CE
S1130190000000000000000000000000000000005B
S11301A000000000001F061000396800000200096A
S11301B0000C01010000060001811218000000007B
S11301C00000000000001F06101C000000000000DA
S11301D000000000000000000000000040120000C9
S11301E0001003900064001F06103802FF02580537
S11301F005000000000000000000000000000000F6
S11302000001000000000000050610540101000078
S113021000000000000000000000000000000000DA
S11302200000000000000000001F0620000404027B
S11302300200012800010018040405050002280337
S1130240010E0300002A043410001F06201C1000B5
S1130250032A00014D6563687920436F6E74726FE1
S11302606C6C6572040405050004001F0620382820
S11302700301020500012A0604030200052A010104
S1130280C303040405050006280301001F062054C7
S1130290020700042A0604090800072A04010600CC
S11302A0180006006400040402020008001F06206F
S11302B07028000101180404020200092800010F3B
S11302C01804040505000A280301120B00001F0688
S11302D0208C192A160C0201000B2A19013246340B
S11302E00302000C29020100000404050500001F9C
S11302F00620A80D280301020E001A2A060C02018A
S1130300000E2A1A012F04040202000F2800010023
S11303101F0620C412180404050500102803010256
S113032011004A2A060C050400112A4A0111010091
S1130330001F0620E001040405050012280301043F
S113034013004C2A4630020100132A4C0100040415
S113035005001F0620FC0500142803010215004BAC
S11303602A040C3D3D00152A4B0105010904A10195
S11303708501001F062118A102093209310930152F
S11303800026FF00350046FF00750895038102C072
S11303908502A1001F0621340205092902190195CD
S11303A0027501250115008102950175068101C0C0
S11303B0C0040405001F062150050016280301127D
S11303C017004D2A140C030000172A4D01000000E9
S11303D04634030200001F06216C182902010000A4
S11303E0060C030200192908010101040405050093
S11303F01A280301121B001F062188004D2A140C21
S11304000100001B2A4D010046340302001C29028E
S1130410010000060C0302001F0621A4001D290888
S113042001020104040202001E280001131804043E
S11304300505001F28030104001F0621C020004FEA
S11304402A4630050400202A4F010000000004045D
S1130450050500212803011022001F0621DC0031BC
S11304602A1400010000222A31010046340302004C
S113047023290201000004040202001F0621F800DF
S1130480242800010A180404050500252803010294
S11304902600502A060C080700262A001F062214EC
S11304A05001021519DDDD010004040505002728AB
S11304B00301022800272A040C0901000011062266
S11304C030282A27010A0000000000000000000074
S11304D000000000000000000000000000001F06F3
S11304E040002A0001008004000300002A190100D2
S11304F08204000B000C2A1A01008004000E001F65
S113050006401C00002A4C01000804001300002AC5
S11305104D01008204001700182A4D0100820400D6
S11305201F064038001B001C2A4F0100080400204D
S113053000002A3101000204002200232A270100BE
S11305400009064054800400280000000000000058
S11305500000000000000000000000000000000097
S113056000001E0660000000000000000000000003
S11305700000000000000000000000000000000077
S1130580000000190670001902C3030000000000F7
S11305900000000000000000000000000000000057
S11305A0000000000606F00003BD5100000000003A
S11305B00000000000000000000000000000000037
S11305C00000000011241FBECFEFDAE0DEBFCDBF74
S11305D094B784B7877F84BF0FB6F894A8958091A9
S11305E06000886180936000109260000FBE93FFEA
S11305F00EC080916B0A90916C0A82349C4D39F440
S113060010926C0A10926B0AE0E0F8E3099518E086
S1130610A0E0B1E0EEE5F7E202C005900D92A03B48
S1130620B107D9F72AE0A0EBB8E001C01D92AB36C0
S1130630B207E1F70E94790E0C94AD13E1CC292F97
S1130640332723303105C9F038F42130310559F00E
S11306502230310569F035C02132310541F12232B1
S1130660310551F12EC082E190E028E131E032C041
S113067082E290E026EF30E02DC099278130910589
S113068051F018F0029769F021C0E2EFF0E0849194
S113069090E09F011FC0E8EDF0E0849190E09F019D
S11306A019C0ECEAF0E0849190E09F0113C089E066
S11306B090E028E031E00EC089E590E02AE231E0E4
S11306C009C080E090E020E030E004C080E090E0E9
S11306D020E030E0FA01318320830895CF93DF9343
S11306E0FC012081222369F0DC011196E8ECF0E0A2
S11306F0CEECD0E0908195FFFDCF28832D91211180
S1130700F9CFDF91CF9108958C01EB0187E291E05D
S1130710E5DFC801E3DF8DE898E0E0DFCE01DEDF4E
S113072088E095E0DBDFFFCFAF92BF92CF92DF92FC
S1130730EF92FF920F931F93CF93DF938C016A0183
S1130740D62FDF77BB24B3940F2EF2EBEF2EF8E015
S1130750FF2EF02D8B2D90E00E949313A82EB394BE
S1130760F7018183882371F0C1E08B2D90E00E9412
S11307709313EC2FF0E0EE54F74F8183B394CF5FE3
S1130780AC1698F7C701D9D6811105C080E391E072
S1130790A5DF81E824C063ED78E0C8010E94D10B95
S11307A08823C9F38091D508843849F080E591E025
S11307B095DF8091D50890E091DF81E810C0D15099
S11307C08091D708823029F4F6011082F801128A48
S11307D006C0DD2319F08130F1F6BCCF81E8DF914A
S11307E0CF911F910F91FF90EF90DF90CF90BF902A
S11307F0AF9008951F93CF93DF93EC01688162500B
S113080080910001909101010E949B13809100014D
S1130810909101010196909301018093000168E099
S11308200E949B1380910001909101010196909385
S1130830010180930001888190E00397181619063E
S1130840FCF420E030E010E0FE01E20FF31F6481CD
S113085080910001909101010E949B1380910001FD
S113086090910101019690930101809300011F5F13
S1130870212F30E0888190E003972817390724F36B
S1130880DF91CF911F9108951F93CF93DF93EC01D4
S11308900E94D00C11E063ED78E0CE0182D788236A
S11308A0D1F38091D5088438F9F48091D708823047
S11308B059F484ED98E09EDF612F606880E090E059
S11308C00E949B1381E011C0813039F060E080E028
S11308D090E00E949B1380E008C084ED98E08ADFDA
S11308E00E94D00C1F5FD7CF80E0DF91CF911F9182
S11308F00895EF92FF920F931F93CF93DF9363EDCD
S113090078E085EF98E04DD7882309F40AC28091F6
S1130910D508873809F42BC190F4833809F491C1C0
S113092040F4813811F108F0ECC1882309F4E5C1E1
S1130930FBC1853809F4B3C008F48CC020C18B38DE
S113094009F4E3C130F4893809F4C5C008F4B0C02F
S1130950EEC08D3809F4F3C008F444C18E3809F4AC
S1130960D8C18F3809F4D9C1DFC1E3EDF8E085813E
S11309708093080983818230B9F028F4882341F0F8
S1130980813051F0D1C18330C9F0843049F0CCC1F9
S113099083E891E0A3DEC8C18FE991E09FDEC4C182
S11309A082EB91E09BDEC0C182E08093090986EC72
S11309B091E094DE81E08093B008BAC182EE91E0C8
S11309C08DDE8091D708882351F02FEF89EF90E0D6
S11309D0215080409040E1F700C00000A5C180E0B4
S11309E090E00E949313C82F8823D9F080E092E00E
S11309F075DE83E292E072DE8BE492E06FDE86E9DC
S1130A0092E06CDE42E051E06C2F85EF98E08CDEE2
S1130A10823021F487ED92E061DE03C084EF92E03E
S1130A205DDE80910709882361F060E570E084EB66
S1130A3090E053D68AE293E051DE87E493E04EDE01
S1130A4073C160E270E084E690E009D682E893E046
S1130A5045DE6AC18091D7088823A1F08091D60829
S1130A608750823008F460C183EC93E037DEC3ED35
S1130A70D8E08B8190E032DE82ED93E02FDE8C8132
S1130A8090E02CDE8091D608893009F04DC129E030
S1130A9048ED58E06CE085EF98E0A1D545C1E5EF5D
S1130AA0F8E08389858B8DEE93E018DE91D53CC107
S1130AB08DEF93E013DE66E085EF98E06AD5882336
S1130AC009F432C18091B10881112EC161D681E04F
S1130AD08093B10829C18FE094E000DE8091D608AC
S1130AE09091D708FBDD8091070981111DC1809188
S1130AF00201882309F418C180910B0990910C0913
S1130B000697439708F010C166E085EF98E041D559
S1130B10882309F409C168E085EF98E03AD5882371
S1130B2009F402C161E085EF98E0B3D5FDC0E5EFBB
S1130B30F8E095898091D608890F858BF5C088E304
S1130B4094E0CCDDC3EDD8E08B8190E0C7DD84E593
S1130B5094E0C4DD8C8190E0C1DD8C81823909F49C
S1130B60E3C0E5EFF8E085898F5F858BDDC08AE619
S1130B7094E0B4DD8091D60880930709D5C08091B4
S1130B80D608833959F48CE794E0A8DD88EA94E028
S1130B90A5DD10D584E080930909C6C080910709BA
S1130BA0882349F060E570E084EB90E096D587E413
S1130BB093E094DDB9C080910201882351F0109232
S1130BC0020185EF98E060DE882319F081EC94E05F
S1130BD085DD60E270E084EB90E041D582E893E04B
S1130BE07DDDA2C08DEE94E079DDC3EDD8E08B818C
S1130BF090E074DD8AEF94E071DD898190E00297E2
S1130C0018161906D4F407ED18E0C0E0D0E00F2E52
S1130C10F3EDEF2EF8E0FF2EF02DF80181918F0116
S1130C2090E05CDD86E095E059DD2196F701818155
S1130C3090E00297C817D90784F387E095E04EDD6A
S1130C4073C08AE095E04ADDC3EDD8E08B819C81D6
S1130C5045DD898190E0039792F020E030E010E0D8
S1130C60F901ED52F74F858190E038DD1F5F212FA8
S1130C7030E0898190E00397821793078CF787E02F
S1130C8095E02CDD80E090E00E949313C82F882328
S1130C90D9F080E092E022DD83E292E01FDD8BE474
S1130CA092E01CDD86E992E019DD42E051E06C2F10
S1130CB085EF98E039DD823021F487ED92E00EDD96
S1130CC003C084EF92E00ADD80910709882361F074
S1130CD060E570E084EB90E000D58AE293E0FEDC0E
S1130CE087E493E0FBDC20C060E270E084E690E0FF
S1130CF0B6D482E893E0F2DC17C087E195E0EEDC3D
S1130D0013C08CE595E0EADC0FC08EE995E0E6DCE3
S1130D100BC08DEE95E0E2DC07C08AE396E0DEDCF2
S1130D2003C083E896E0DADC8091B008882339F0C8
S1130D3085EF98E02CD2811102C01092B008DF91A7
S1130D40CF911F910F91FF90EF9008951F93CF9330
S1130D50DF93E8ECF0E0808185FFFDCF8DE996E03C
S1130D60BDDCC5EFD8E083E091E09D878C878CE003
S1130D708E8783E891E0988B8F8781E2898B188234
S1130D808CE1898388E08A838AE08B838BE08C837F
S1130D9089E08D8311E01E838DE18F838EE1888746
S1130DA08FEF89871A861B8761E0CE01C1D55298DF
S1130DB05A981A8BDF91CF911F910895CF93DF93A7
S1130DC000D01F92CDB7DEB794DD66E085EF98E0E2
S1130DD0E0D3882399F080910A09882379F0198255
S1130DE081E08A838B8343E0BE016F5F7F4F86E09F
S1130DF08ED4E5EFF8E085898150858B0F900F90B4
S1130E000F90DF91CF910895A1DFD8DFFECF21E0CD
S1130E10FC01208324E02183089521E0FC01208348
S1130E2029E02183089522E0240FDC012C932DE096
S1130E3011962C931197E62FF72F219112962C934C
S1130E4050E0BF0103960C948A130895FC01DB0162
S1130E5085E080838FE0818311968C911197838341
S1130E608C91828313968C911397858312968C911F
S1130E7084830895FC01DB0185E0808380E1818324
S1130E8011968C91119783838C91828313968C9104
S1130E901397858312968C9184830895FC0182E0D4
S1130EA0808381E18183DB018C918283089521E039
S1130EB0FC0120832EE02183089522E0240FDC012D
S1130EC02C9325E111962C931197E62FF72F21915E
S1130ED012962C9350E0BF0103960C948A13089544
S1130EE021E0FC01208327E02183089521E0FC0117
S1130EF0208323E121830895CF93DF93EC01892B91
S1130F0029F465E270E083EB96E0FEDBFE01EC572A
S1130F10FF4F10823196108219821A821AA21BA2E4
S1130F20E254F109108231961082B0961082CB59A6
S1130F30DF4F1882DF91CF910895CF93DF93EC01B7
S1130F40892B29F46DE770E083EB96E0DDDBFE018D
S1130F50EC57FF4FCB57DF4F81E020819881291355
S1130F6080E0DF91CF9108950F931F93CF93DF9388
S1130F70EC018B01892B29F462E370E083EB96E0AA
S1130F80C3DB0115110529F463E370E083EB96E0FC
S1130F90BBDBCE01D2DF882329F081ED96E09EDB16
S1130FA080E01AC086EE96E099DBCE018C579F4F05
S1130FB0FC0120812370FE0131E2239FE00DF11D2D
S1130FC0112421E2D80101900D922A95E1F7FC0148
S1130FD020812F5F208381E0DF91CF911F910F91BA
S1130FE00895CF93DF93EC01892B29F46AE970E02B
S1130FF083EB96E089DBFE01EC57FF4F208130E064
S11310002C5F3F4FCB57DF4F488150E081E02417DE
S1131010350709F080E0DF91CF910895DF92EF92D8
S1131020FF920F931F93CF93DF93EC018B01FB018E
S1131030D180892B29F466E570E083EB96E064DBCC
S11310400115110529F467E570E083EB96E05CDB9C
S1131050CE01C7DF811121C07E01F5E8EF0EF11C3E
S1131060F70180818370F1E28F9FC0011124FE019A
S1131070E80FF91F108201964D2D50E04F5F5F4F2E
S1131080B8016F5F7F4F8C0F9D1F0E948A13F70179
S113109080818F5F808381E001C080E0DF91CF9108
S11310A01F910F91FF90EF90DF9008950F931F937E
S11310B0CF93DF93EC018B01892B29F464EB70E06F
S11310C083EB96E021DB0115110529F465EB70E053
S11310D083EB96E019DBCE0130DF811113C0FE01F2
S11310E0EC57FF4F80818370FE0191E2899FE00DF0
S11310F0F11D112481E2D80101900D928A95E1F746
S113110081E001C080E0DF91CF911F910F9108959C
S1131110DF92EF92FF920F931F93CF93DF93EC0133
S1131120FB0190818989981740F58B01F12C0F2ED2
S1131130F1E2EF2EF02DDD24D3946F857889E99EBA
S1131140600D711D1124FB013196449150E04E5FF6
S11311505F4F8DE39AE00E9481138DE39AE0EDD115
S1131160882361F0F80190819F5F9083FD2C898929
S1131170981718F3FF24F39401C0F12C8F2DDF91FD
S1131180CF911F910F91FF90EF90DF9008957F9280
S11311908F929F92AF92BF92CF92DF92EF92FF9283
S11311A00F931F93CF93DF931F92CDB7DEB78C01BC
S11311B01982FDD3882309F457C08DE39AE0EFD256
S11311C0811154C0BE016F5F7F4FC801A1DF80E071
S11311D090E0DC01712C812C912CA12C2AC08DE390
S11311E09AE0DDD2882391F180913F0A843809F096
S11311F03FC0B090410A21E0B21621F082E0B81657
S113120079F038C0BE016F5F7F4FC80181DF6DE3A5
S11312107AE0C801C6D2872D982DA92DBA2D09C010
S11312206DE37AE0C801BDD222E0B21629F1D701FC
S1131230C6016C017D012FEFC21AD20AE20AF20A3A
S11312408F3F9F4FAF40B10550F218C08FEFC81ABF
S1131250D80AE80AF80AC114D10420E1E206F1042C
S113126009F0BDCF83E00BC081E009C082E007C074
S113127085E005C084E003C080E001C083E00F90F6
S1131280DF91CF911F910F91FF90EF90DF90CF905E
S1131290BF90AF909F908F907F900895CF92DF92F0
S11312A0EF92FF920F931F93CF93DF937C01FC0186
S11312B0018190E3900FE8ECF0E0808185FFFDCFA1
S11312C09093CE0081E097E009DA10E0C8ECD0E01A
S11312D00F2EFEECCF2ED12CF02DF701E10FF11DD6
S11312E09181905D888185FFFDCFF601908384E034
S11312F097E0F4D91F5F011780F787E095E0EED9F6
S1131300DF91CF911F910F91FF90EF90DF90CF90DD
S11313100895CF93DF93CDB7DEB7C254D1090FB68A
S1131320F894DEBF0FBECDBF81E399E05ADE811190
S113133056C0BE016F5F7F4F87EB99E015DE8111C8
S113134002C019821A822C988A818EBD0DB407FEC0
S1131350FDCF8EB58AA38B818EBD0DB407FEFDCF64
S11313608EB58BA32A81222349F030E0482F50E028
S1131370C9010197841795070CF4CA01803208F05B
S11313808FE18823A1F0FE013496DE01949681500A
S11313909E01280F311D2B5F3F4F81918EBD0DB4EF
S11313A007FEFDCF8EB58D93E217F307B1F72C9AA4
S11313B081E399E016DE811106C087EB99E0BDDD7B
S11313C0811101C02C988BA1882349F0BE016E5D68
S11313D07F4F81E399E022DE811101C0FFCFCE5B14
S11313E0DF4F0FB6F894DEBF0FBECDBFDF91CF91B4
S11313F00895E0912209F091230987818F3FD9F064
S1131400259AE0912209F09123098081813061F4C9
S11314102D9A2FEF81EE94E0215080409040E1F727
S113142000C000002D98089587E097E057D9259AC9
S11314302D9A2D982D9A0895CF93DF93EC0169DFAF
S1131440BE0181E399E032DEDF91CF9108950F93DD
S11314501F93CF938C0181E399E0C3DD811101C017
S113146058DF81E399E0BDDDB80181E399E07CDDDB
S1131470C82F8823C1F080912409882329F08BE1A7
S113148097E02CD9C8010ADF81E399E0AADD811134
S113149007C087EB99E051DD811104C02C9803C08B
S11314A0C82F01C0C82F8C2FCF911F910F91089581
S11314B0CF93DF93EC0160932409909323098093E5
S11314C02209209A289A84B1866084B923982B9A99
S11314D08DB581608DBD209882E78CBD2FEF83EDA3
S11314E090E3215080409040E1F700C000008DE17E
S11314F097E0F4D887EB99E0FFDC85E397E0EED83A
S113150081E399E0F9DC2098289A249A2C9888851C
S11315108F3F11F026982E9A6CDF2B982A982C9ADC
S113152029982FEF86E791E0215080409040E1F721
S113153000C00000DF91CF9108951F93CF93DF93F4
S1131540FC0121812032B8F4EC01BC0187EB99E065
S113155065DD882391F081E399E043DD811101C0C9
S11315602C9810912409112351F08DE497E0B6D8FA
S1131570CE0194DE05C010E003C010E001C011E00C
S1131580812FDF91CF911F91089587EB99E0D5CCFE
S11315900895262F269526952695820F911DFC01E8
S11315A0848D90E0677002C0959587956A95E2F7FF
S11315B0817008958EE39AE02ADC8DE39AE0BDCF32
S11315C008958EE39AE073DC8DE39AE0B6CF089534
S11315D08EE39AE022DC8DE39AE0AFCF08951F9367
S11315E0CF93DF93CDB7DEB765970FB6F894DEBF20
S11315F00FBECDBF862F90E0FC01EE0FFF1F8E0FB4
S11316009F1FE0912D09F0912E09E80FF91F3397E0
S113161080818130B9F42531B8F4122F9A0169839D
S1131620412F50E0B901CE0102960E948A13412F46
S1131630BE016F5F7F4F8EE39AE0F5DB8DE39AE0A6
S11316407CDF03C080E001C080E065960FB6F894AB
S1131650DEBF0FBECDBFDF91CF911F910895CF9311
S1131660DF9300D000D0CDB7DEB79A8389837C8323
S11316706B83BE016F5F7F4F8EE39AE0E7DB8DE300
S11316809AE05BDF0F900F900F900F90DF91CF9156
S113169008950F931F93CF93DF931F92CDB7DEB7B7
S11316A08C016983BE016F5F7F4F8EE39AE0F6DBA6
S11316B08DE39AE042DF882351F0F8017C9698018B
S11316C02C5D3F4F11921782E217F307D9F70F9061
S11316D0DF91CF911F910F910895CF93DF9300D0A5
S11316E000D0CDB7DEB79A8389837C836B83BE0138
S11316F06F5F7F4F8EE39AE0BDDB8DE39AE01DDFE1
S11317000F900F900F900F90DF91CF9108951F933A
S1131710CF93DF93CDB7DEB765970FB6F894DEBFEE
S11317200FBECDBF282F30E0F901EE0FFF1F2E0FA3
S11317303F1FE0912D09F0912E09E20FF31F33971B
S1131740218132812230310519F02430310599F498
S1131750453198F4142F898350E0CE010296DAD7EC
S1131760412FBE016F5F7F4F8EE39AE0A6DB8DE3CE
S11317709AE0E3DE03C080E001C080E065960FB626
S1131780F894DEBF0FBECDBFDF91CF911F910895B6
S11317908EE39AE0ABDB8DE39AE0CFCE08954CCE96
S11317A00895FF920F931F93CF93DF938C01EB0166
S11317B08FE497E00E946E03CE0149DEF82E882361
S11317C009F448C088E697E00E946E038A8186384F
S11317D0C1F018F4853889F13DC0883819F089388A
S11317E0F1F038C0FE013396D8015C962B968191B6
S11317F08D93878117968C931797EC17FD07B9F78C
S113180029C0F8017C96C8018496119217828E171C
S11318109F07D9F7F80114A68389858B1BC08B8198
S11318209C81F801978B868B8D819E81918F808F0F
S11318308F819885938F828F0DC08A859B85F8014F
S1131840978B868B8C859D85918F808F8E859F85C8
S1131850938F828F8F2DDF91CF911F910F91FF90E6
S11318600895CF93DF93FC012081213009F05DC0FE
S1131870EC01FFEF21EE84E0F15020408040E1F7DD
S113188000C000009EDE6DE37AE0CE018ADF88238B
S1131890D1F380913F0A843809F042C08091410A13
S11318A0833899F488E897E00E946E03EDE3FAE048
S11318B084E0818381E8828382E083831482858348
S11318C0BF0181E399E0AADB30C0811114C08FEA23
S11318D097E00E946E03EDE3FAE084E0818381E8FF
S11318E0828383E08383148282E08583BF0181E362
S11318F099E094DB1AC08238C1F485ED97E00E9428
S11319006E03EDE3FAE084E0818381E8828381E081
S1131910838314821582BF0181E399E07FDB05C0D4
S113192088EF97E00E946E03AECFDF91CF910895C8
S1131930BF92CF92DF92EF92FF920F931F93CF93B8
S1131940DF936C01B62E8C01045E1F4FC5E2D9E013
S11319500F2EFDE2EF2EF9E0FF2EF02D85E198E049
S11319600E946E03F80111928F0117821992CE150D
S1131970DF05A1F7F6018485958590932E09809360
S11319802D096B2DC60194DDC6016BDFDF91CF916C
S11319901F910F91FF90EF90DF90CF90BF9008952B
S11319A08EE39AE09DDA8DE39AE0C7CD0895EDCDFC
S11319B0089584B7877F84BF0FB6F894A895809163
S11319C06000886180936000109260000FBE90E018
S11319D080E80FB6F89480936100909361000FBE85
S11319E084988C9A86E880937A008DB1806F8DB943
S11319F08EB18F708EB98AB11AB88BB18FEF8BB953
S1131A000ED487E690E09093CD008093CC0086E0DE
S1131A108093CA001092C80088E18093C900539A49
S1131A205A9A08958EB1806F8EB908958EB1806FE1
S1131A308EB9089542E161EC81E0E6D28EB1806F07
S1131A408EB908950F931F93CF938C01C9B1C0959C
S1131A508BE0D8011D928A95E9F781E398E00E9412
S1131A606E0381E480937C00EBE7F0E080818F7D5E
S1131A708083EAE7F0E0808180648083808184FF52
S1131A80FDCFEAE7F0E08081806180838091780077
S1131A90909179008095B3E09B27D8018D939C9316
S1131AA080E480937C00ABE7B0E08C918F7D8C93D5
S1131AB0808180648083808184FFFDCFEAE7F0E049
S1131AC08081806180838091780090917900D80131
S1131AD013969C938E93129786E480937C00ABE7D5
S1131AE0B0E08C918F7D8C93808180648083808131
S1131AF084FFFDCFEAE7F0E08081806180838091FC
S1131B007800909179008095B3E09B27D8011596D1
S1131B109C938E93149785E480937C00ABE7B0E0AC
S1131B208C918F7D8C93808180648083808184FFFD
S1131B30FDCFEAE7F0E080818061808380917800C6
S1131B4090917900F80197838683C5FF03C081854E
S1131B5081608187CC233CF4D80119968C91199724
S1131B60826019968C93C4FF04C0F8018185846057
S1131B708187C6FF07C0D80119968C911997886090
S1131B8019968C938C2F8170C1FD8260C2FD846094
S1131B90C3FD8860853089F13CF4823099F084304B
S1131BA0B1F0813079F50BC08830A9F01CF486308F
S1131BB001F128C08930A1F08A30B1F023C0F801C6
S1131BC0108623C084E0D80118968C931EC086E04A
S1131BD0F80180871AC082E0D80118968C9315C04A
S1131BE081E0F801808711C083E0D80118968C93B6
S1131BF00CC085E0F801808708C087E0D8011896FA
S1131C008C9303C08FEFF801808780912F098C2774
S1131C1090913009892B11E009F410E010923009F9
S1131C20C0932F0983E698E00E946E03812FCF9121
S1131C301F910F9108950F931F93CF93DF93CDB707
S1131C40DEB72B970FB6F894DEBF0FBECDBF8091E1
S1131C50640A8130B1F48091630A813A91F4CE012F
S1131C600196F0DE08EE10E0F8018081877F808322
S1131C706BE070E0CE010196BED0F80180818B77D5
S1131C8080832B960FB6F894DEBF0FBECDBFDF91D5
S1131C90CF911F910F910895CF93DF93CDB7DEB706
S1131CA02B970FB6F894DEBF0FBECDBF8091620AAA
S1131CB08430B1F481E08093E9008091E80080FFF2
S1131CC00FC0CE010196BEDE40E050E06BE070E054
S1131CD0CE01019633D0E8EEF0E080818E778083E8
S1131CE02B960FB6F894DEBF0FBECDBFDF91CF9118
S1131CF008955FDE8EB1806F8EB97894C8ECD0E021
S1131D000EEC10E0C9DFE3D486E798E00E946E038E
S1131D109091620A905D888185FFFDCFF8019083E0
S1131D2087E095E00E946E038091620A853051F746
S1131D3080E998E00E946E0367D8E4CF8F929F9267
S1131D40AF92BF92CF92DF92EF92FF920F931F93C5
S1131D50CF93DF938C01EB015A01E0D181113EC096
S1131D60A114B10439F0F50180819181C81BD90B0C
S1131D70080F191F209789F1E12CF12C0F2EF8EE92
S1131D808F2E912CF02D0F2EF1EFCF2ED12CF02D84
S1131D90F401808185FD14C080818E77808397D47F
S1131DA0A114B10449F0F50180819181E80EF91E76
S1131DB0F182E08285E012C0B1D1882351F00EC0D7
S1131DC0F80181918F01F60180832197FFEFEF1ACB
S1131DD0FF0A2097E9F680E001C080E0DF91CF910F
S1131DE01F910F91FF90EF90DF90CF90BF90AF9035
S1131DF09F908F900895CF92DF92FF920F931F933D
S1131E00CF93DF932091690A30916A0A2617370726
S1131E1058F06115710539F4E8EEF0E020812E7771
S1131E2020839B0101C09B01A82FB92F10E0E8EE8D
S1131E30F0E063EF70E042EF50E00F2EF1EFCF2EB1
S1131E40D12CF02D01E0F12C30C08091620A88235E
S1131E5009F442C0853009F441C0808183FD40C04B
S1131E60808182FD32C0808180FF1FC0EB01188118
S1131E70EA01888190E0912B2115310579F08830B1
S1131E80910560F41D91E6011883215031090196F2
S1131E902115310519F088309105A1F7102F089705
S1131EA009F01F2D80818E7780832115310569F615
S1131EB01111CBCF0AC08091620A882399F0853032
S1131EC099F0808183FF03C011C0E8EEF0E08081C7
S1131ED082FFF1CF80E00BC082E009C083E007C03D
S1131EE081E005C082E003C083E001C081E0DF91AE
S1131EF0CF911F910F91FF90DF90CF900895CF92D3
S1131F00DF92FF920F931F93CF93DF932091690A7F
S1131F1030916A0A2617370758F06115710539F4AC
S1131F20E8EEF0E020812E7720839B0101C09B0125
S1131F30E82FF92F10E0A8EEB0E063EF70E042EF75
S1131F4050E00F2EF1EFCF2ED12CF02D01E0F12C2B
S1131F5031C08091620A882309F443C0853009F4B2
S1131F6042C08C9183FD41C08C9182FD33C08C9121
S1131F7080FF20C0EB011881EA01888190E0912B59
S1131F802115310581F08830910568F41491E6013A
S1131F90188331962150310901962115310519F024
S1131FA08830910599F7102F089709F01F2D8C910F
S1131FB08E778C932115310561F61111CACF0AC0B1
S1131FC08091620A882399F0853099F0808183FF9B
S1131FD003C011C0E8EEF0E0808182FFF1CF80E021
S1131FE00BC082E009C083E007C081E005C082E045
S1131FF003C083E001C081E0DF91CF911F910F9175
S1132000FF90DF90CF9008958F929F92BF92CF92CE
S1132010DF92EF92FF920F931F93CF93DF9387305A
S113202070F126C0292F2F70E7012883891731F01A
S1132030E80178812081E401588103C0242F762FA0
S11320405B2D21FF12C03C913E7F3C9330813D7F4C
S113205030833C9131603C93E80178832083E40130
S11320605883E6012881222344F49F5F9730D1F6F8
S11320708F708093E90081E021C080E01FC0982F19
S11320809F709093E900982F242F762F50E0ABEEA9
S1132090B0E0EDEEF0E00CEE10E00F2EF0EF8F2E3E
S11320A0912CF02D0F2EFEEECF2ED12CF02D0F2ED5
S11320B0F9EEEF2EF12CF02DB12CC3CFDF91CF919F
S11320C01F910F91FF90EF90DF90CF90BF909F9062
S11320D08F9008958091630A882344F0E8EEF0E03D
S11320E014C08091620A811103C00895E8EEF0E003
S11320F0808182FFF6CFE8EEF0E080818B778083E9
S113210008958091620A882341F0808180FFF9CF8D
S1132110E8EEF0E080818E77808308950F931F931B
S1132120CF93DF932091E4003091E50065E6ACEEB7
S1132130B0E0E8EEF0E00BEE10E044EE50E001C059
S11321409C019C91892F817090FD1DC020C08091BD
S1132150620A882381F0853081F0E801888185FD59
S11321600EC0EA01888199812817390751F361501B
S113217039F784E00FC082E00DC083E00BC081E03A
S113218009C080E007C0808180FFE1CFFACF908151
S113219092FFDDCFDF91CF911F910F9108950F939F
S11321A01F93CF93DF934CD053D0C8EDD0E08881F8
S11321B08F77888388818068888388818F7D8883EE
S11321C019BC1092620A10925E0A1092600A109270
S11321D05F0A00EE10E0F80180818B7F80838881A4
S11321E08160888342E060E080E00EDFE1EEF0E0B1
S11321F080818E7F8083E2EEF0E080818160808345
S1132200808188608083F80180818E7F80838881CB
S113221080618883DF91CF911F910F910895E8ED3C
S1132220F0E080818F7E8083E7EDF0E08081816043
S1132230808384E082BF81E08093610AB0CF0895F7
S1132240E8EDF0E080818E7F80831092E2000895B3
S11322501092DA001092E10008951F920F920FB6C7
S11322600F9211242F933F934F935F936F937F9318
S11322708F939F93AF93BF93EF93FF938091E1006C
S113228082FF0AC08091E20082FF06C0E1EEF0E026
S113229080818B7F80831AD28091DA0080FF1DC0F9
S11322A08091D80080FF19C0EAEDF0E080818E7F34
S11322B080838091D90080FF0CC080E189BD82E1D8
S11322C089BD09B400FEFDCF81E08093620AAADBD8
S11322D004C019BC1092620AA9DB8091E10080FF5E
S11322E016C08091E20080FF12C0E2EEF0E080812F
S11322F08E7F8083808180618083E8EDF0E080813F
S11323008062808319BC85E08093620ADFD180916A
S1132310E10084FF2FC08091E20084FF2BC080E1A4
S113232089BD82E189BD09B400FEFDCFE8EDF0E08E
S113233080818F7D8083E1EEF0E080818F7E8083D9
S1132340E2EEF0E080818F7E8083808181608083F3
S113235080915E0A882321F084E08093620A09C098
S11323608091E300882314F081E001C083E080932E
S1132370620AACD18091E10083FF1EC08091E2002B
S113238083FF1AC0E1EEF0E08081877F808382E0E2
S11323908093620A10925E0A80818E7F8083E2EECF
S11323A0F0E080818E7F808380818061808342E041
S11323B060E080E029DE8AD1FF91EF91BF91AF9177
S11323C09F918F917F916F915F914F913F912F9149
S11323D00F900FBE0F901F9018950F931F93CF93DC
S11323E0DF93CDB7DEB7AA970FB6F894DEBF0FBE62
S11323F0CDBFE3E6FAE02BE63AE0A1EFB0E08C9142
S113240081932E173F07D9F716DC8091E80083FFEC
S113241038C1E3E6FAE090818181853009F47FC018
S113242030F48130C9F168F08330B1F12AC18830C9
S113243009F4F2C0893009F4FFC0863009F021C1E3
S113244091C0903821F0923809F01BC108C08091E6
S11324505F0A9091600A992389F082600FC080918D
S1132460670A8F70873008F00CC1E9EEF0E08083D2
S11324708091EB0085FB882780F91082E8EEF0E07C
S11324809081977F9083A1EFB0E08C931C92808120
S11324908E7780831FDEF5C0992309F401C1923041
S11324A009F0EFC002C191E0833009F090E090930D
S11324B0600A2CC08091670A8F709FEF980F963046
S11324C008F0DFC08093E9009091EB0090FF1EC0FC
S11324D09091640A933031F4EBEEF0E080818062F5
S11324E0808314C0EBEEF0E090819061908321E052
S11324F030E0A90102C0440F551F8A95E2F7AAEE05
S1132500B0E04C931C928081886080831092E90033
S1132510E8EEF0E08081877F8083DCDDB2C091113A
S1132520B0C01091650A1F77E3EEF0E080818078F7
S1132530812B8083E8EEF0E08081877F8083CADD91
S1132540E8EEF0E0808180FFFDCFE3EEF0E08081F3
S113255080688083111102C082E001C083E080930F
S1132560620A8FC09058923008F08BC08091650A3F
S11325709091660A8C3D53E0950799F583E08A8330
S11325808AE289835FB7F894DE01139620E03EE087
S113259041E2E32FF0E040935700849120FF03C011
S11325A082958F703F5F8F708A3018F090E0C796E5
S11325B002C090E0C0968D939D932F5F243149F71C
S11325C05FBF08EE10E0F8018081877F80836AE2B4
S11325D070E0CE0101960FDCF80180818B77808357
S11325E050C06091670A7091680AAE014F5F5F4FF7
S11325F00E941F03BC01892B09F443C008EE10E0BC
S1132600F8019081977F908389819A8178DCF80121
S113261080818B77808335C0903899F5E8EEF0E0BF
S11326208081877F808380915E0A8093F10080811E
S11326308E7780834FDD25C0911123C08091650A78
S11326409091660A99270297E4F4E8EEF0E080811D
S1132650877F80838091650A80935E0A3BDD809149
S11326605E0A882321F084E08093620A09C0809185
S1132670E300882314F081E001C084E08093620ABF
S1132680D9D98091E80083FF16C0E8EEF0E080819C
S1132690877F8083EBEEF0E08081806280830BC0D3
S11326A09091650A913069F7FECE8091650A88237E
S11326B009F400CF2BCFAA960FB6F894DEBF0FBE55
S11326C0CDBFDF91CF911F910F9108950895CF93BE
S11326D08091620A882399F0C091E900CF708091BB
S11326E0EC00982F917080FD90E8C92B1092E900BE
S11326F08091E80083FD71DECF70C093E900CF9133
S11327000895FB01DC0102C005900D924150504038
S1132710D8F70895FB01DC0102C001900D924150ED
S11327205040D8F70895F999FECF92BD81BDF89A2B
S1132730992780B50895262FF999FECF92BD81BDC2
S1132740F89A019700B4021639F01FBA20BD0FB6EB
S1112750F894FA9AF99A0FBE0895F894FFCF00
S113275E01000101800001020001800001800001DE
S113276E080001020001800001020001800001083E
S113277E000102000180004552524F52200D0A0002
S113278E626F6E645F646174615F726573746F729D
S113279E653A20436D6420512046756C6C0D0A0019
S11327AE626F6E645F646174615F726573746F727D
S11327BE653A20457870656374656420636D6420A2
S11327CE727370206576742E20476F743A203078B9
S11327DE0D0A00414349204576656E7420446576A2
S11327EE69636520496E76616C6964210D0A004146
S11327FE4349204465766963652054657374210DDD
S113280E0A004143492044657669636520536C652B
S113281E6570210D0A0045767420446576696365FA
S113282E20537461727465643A2053657475700D27
S113283E0A00457674204465766963652053746195
S113284E727465643A205374616E6462790D0A0081
S113285E50726576696F757320426F6E6420707264
S113286E6573656E742E20526573746F72696E672C
S113287E0D0A005573696E67206578697374696E05
S113288E6720626F6E642073746F72656420696E64
S113289E20454550524F4D2E0D0A00202020546FD6
S11328AE2064656C6574652074686520626F6E645F
S11328BE2073746F72656420696E20454550524FC3
S11328CE4D2C20636F6E6E6563742050696E2036D6
S11328DE20746F20332E337620616E64205265731C
S11328EE65742E0D0A002020204D616B65207375D2
S11328FE726520746861742074686520626F6E64FA
S113290E206F6E207468652070686F6E652F50435B
S113291E2069732064656C65746564206173207727
S113292E656C6C2E0D0A00426F6E642072657374B2
S113293E6F726564207375636365737366756C6C0F
S113294E790D0A00426F6E6420726573746F72653E
S113295E206661696C65642E2044656C657465201F
S113296E74686520626F6E6420616E64207472797F
S113297E20616761696E2E0D0A004E6F20426F6EE4
S113298E642070726573656E7420696E20454550BF
S113299E524F4D2E0D0A0041647665727469736947
S11329AE6E672073746172746564203A205761698E
S11329BE74696E6720746F20626520636F6E6E6536
S11329CE6374656420616E6420626F6E6465640D69
S11329DE0A00416C726561647920626F6E6465648D
S11329EE203A204164766572746973696E67207348
S11329FE746172746564203A2057616974696E67F4
S1132A0E20746F20626520636F6E6E6563746564F7
S1132A1E0D0A0041434920436F6D6D616E64200DB4
S1132A2E0A0045767420436D6420726573706F6E70
S1132A3E653A20537461747573200D0A00457674DB
S1132A4E20436F6E6E65637465640D0A004576747B
S1132A5E2050697065205374617475730D0A0054A7
S1132A6E696D696E67206368616E67652072656360
S1132A7E656976656420636F6E6E20496E74657247
S1132A8E76616C3A203078004143492045767420B3
S1132A9E50697065204572726F723A205069706584
S1132AAE20233A00202050697065204572726F729F
S1132ABE20436F64653A2030780045767420426F67
S1132ACE6E64205374617475730D0A004576742018
S1132ADE446973636F6E6E6563746564202D3E2066
S1132AEE4164766572746973696E672074696D6585
S1132AFE64206F75740D0A006E52463830303120E2
S1132B0E676F696E6720746F20736C6565700D0A4C
S1132B1E0044796E616D696320446174612072654D
S1132B2E616420616E642073746F726564207375C2
S1132B3E636365737366756C6C790D0A0050697006
S1132B4E6520233A2030780D0A00204461746128F0
S1132B5E48657829203A200D0A004857206572727C
S1132B6E6F723A200D0A00414349204576656E7412
S1132B7E20496E76616C696421204920636F756CFF
S1132B8E646E27742068616E646C65207468697362
S1132B9E206265666F726520616E642049207374CD
S1132BAE696C6C2063616E27740D0A0041434920E1
S1132BBE4576656E74204543484F21204920636F46
S1132BCE756C646E27742068616E646C652074681D
S1132BDE6973206265666F726520616E6420492098
S1132BEE7374696C6C2063616E27740D0A00414323
S1132BFE49204576656E7420446174612041636B8F
S1132C0E6E6F776C656467656421204920636F7508
S1132C1E6C646E27742068616E646C6520746869D8
S1132C2E73206265666F726520616E64204920733D
S1132C3E74696C6C2063616E27740D0A00414349FC
S1132C4E204576656E7420446973706C61792050EA
S1132C5E6173736B657921204920636F756C646EA3
S1132C6E27742068616E646C6520746869732062D1
S1132C7E65666F726520616E642049207374696C99
S1132C8E6C2063616E27740D0A004143492045761A
S1132C9E656E74204B657920526571756573742168
S1132CAE204920636F756C646E27742068616E64AE
S1132CBE6C652074686973206265666F7265206145
S1132CCE6E642049207374696C6C2063616E277482
S1132CDE0D0A004E6F20414349204576656E74738C
S1132CEE20617661696C61626C650D0A00536574CE
S1132CFE74696E6720757020736572766963657387
S1132D0E0D0A002E2E2F7372632F4E6F7264696339
S1132D1E2F424C452F6163695F71756575652E632E
S1132D2E0041434920517565756520697320456DD1
S1132D3E7074790D0A0057726974696E6720536F47
S1132D4E6D657468696E6720746F206D656D0D0A0C
S1132D5E00203A002C2000526573657474696E6706
S1132D6E206E5246383030310D0A004500496E69E6
S1132D7E7469616C697A696E67205458205175655F
S1132D8E75650D0A00496E697469616C697A696EBC
S1132D9E672052582051756575650D0A004300472A
S1132DAE657474696E67206C6962204143492065BD
S1132DBE76656E74730D0A004C6962204143492096
S1132DCE6576656E747320737461747573203D3DFE
S1132DDE20547275650D0A00496E6A656374696ED6
S1132DEE67202D53657475702D204576656E74209D
S1132DFE746F207468652051756575650D0A0049F8
S1132E0E6E6A656374202D5374616E6462792D202D
S1132E1E4576656E7420746F2074686520517565EF
S1132E2E75650D0A00496E6A656374202D546573C9
S1132E3E742D204576656E7420746F207468652039
S1132E4E51756575650D0A0044697363617264207A
S1132E5E616E79206F74686572204143492045760E
S1132E6E656E747300416464696E672061206269E3
S1132E7E7420746F207468652070697065730D0A10
S1132E8E0049206D61646520697420746F20746834
S1132E9E65207374617274206F6620746865207285
S1132EAE65706F727420636F6C6C656374696F6E9A
S1132EBE0D0A004920646964207468652072657087
S1132ECE6F72740D0A004920616D2063757272650C
S1132EDE6E746C7920696E2073746174653A200087
S1132EEE4920616D2061626F757420746F20737454
S1132EFE61727420424C452073747566660D0A0027
S9030000FC
